:020000040800F2
:1000000000000120050300080B030008110300088D
:1000100033030008390300085B03000800000000F8
:100020000000000000000000000000007D03000848
:100030008303000800000000890300088F03000804
:10004000AD030008AD030008AD030008AD030008D0
:10005000AD030008AD030008AD030008AD030008C0
:10006000AD030008AD030008AD030008AD030008B0
:10007000AD030008AD030008AD030008AD030008A0
:10008000AD030008AD030008AD0300080000000048
:10009000000000000000000000000000AD030008A8
:1000A000AD030008AD030008AD030008AD03000870
:1000B000AD030008AD030008AD030008AD03000860
:1000C000AD030008AD030008AD030008AD03000850
:1000D000AD030008AD030008AD03000800000000F8
:1000E000AD030008AD030008AD03000800000000E8
:1000F000000000000000000000000000AD03000848
:1001000000000000AD030008AD030008AD030008C7
:1001100000000000000000000000000000000000DF
:10012000AD030008AD030008AD030008AD030008EF
:10013000AD03000800000000000000000000000007
:10014000000000000000000000000000AD030008F7
:10015000AD030008AD030008AD030008AD030008BF
:10016000AD030008AD03000800000000000000001F
:10017000000000000000000000000000000000007F
:1001800000000000AD0300080000000000000000B7
:10019000AD03000880B596B000AF00F037F94F4BC3
:1001A0007B6524E07B6D1A1D7A651B683B647B6D63
:1001B0001A1D7A651B68FB637B6D1A1D7A651B68C7
:1001C000BB633B6C7B63FB6B3B63BB6BFB623B6B5F
:1001D000BB6207E07A6B131D7B63BB6A191DB962B2
:1001E00012681A60FA6ABB6A9A42F3D800BF7B6D44
:1001F0003B4A9342D6D33B4B3B651AE03B6D1A1DFD
:100200003A651B68BB643B6D1A1D3A651B687B64CD
:10021000BB6C7B627B6C3B627B6AFB6104E0FB69CD
:100220001A1DFA6100221A603A6AFB699A42F6D8EE
:1002300000BF3B6D2C4A9342E0D300F0F5F83A1D25
:1002400007F108031146184600F0CEF8274A284B5C
:10025000D31A9B103B610023FB6007E0244AFB6834
:1002600052F823309847FB680133FB603A69FB681A
:100270009A42F3DC1F4A204BD31A9B103B610023A8
:10028000FB6007E01C4AFB6852F823309847FB6884
:100290000133FB603A69FB689A42F3DC00BFBB683C
:1002A0007A681146184600F06BF9F864134A144B4B
:1002B000D31A9B10BB61BB697B6108E07B69013B82
:1002C0000F4A52F8233098477B69013B7B617B6979
:1002D000002BF3DC00BFF86C00F080F8B4030008DA
:1002E000CC030008CC030008DC030008DC03000892
:1002F000DC030008DC030008DC030008DC03000862
:10030000DC0300082548004700BF80B400AFFEE7CB
:100310001EF0040F0CBFEFF30880EFF30980714665
:100320001F4A104700BF80B483B000AF78603960C7
:10033000FEE780B400AFFEE71EF0040F0CBFEFF342
:100340000880EFF309807146164A104700BF80B459
:1003500083B000AF78603960FEE71EF0040F0CBF79
:10036000EFF30880EFF3098071460F4A104700BF92
:1003700080B483B000AF78603960FEE780B400AF2E
:10038000FEE780B400AFFEE780B400AFFEE780B4C4
:1003900000AF00BFBD4680BC70470000950100085B
:1003A000270300084F0300087103000880B400AF62
:0203B000FEE766
:1003B400A80C0008000000200C000020A80C000875
:1003C40000000010000000100C00002010000020AD
:0803D400000000100000001001
:1003DC0080B582B000AF786000F03CF880B483B098
:1003EC0000AF786039607B6801221A603B68034A71
:1003FC001A6000BF0C37BD4680BC7047000000205F
:10040C0080B500AF00F02AF8024B034A9A6000BF97
:10041C0080BD00BF00ED00E00000000880B500AF1B
:10042C0000F028F800BF80BD80B400AFBFF34F8F41
:10043C0000BF064BDB6803F4E0620449044B134332
:10044C00CB60BFF34F8F00BF00BFFDE700ED00E0B6
:10045C000400FA0580B500AFFFF7E6FF80B400AFEB
:10046C00034B4FF000629A6000BFBD4680BC7047E2
:10047C0000ED00E080B487B000AF00233B610023A7
:10048C007B610223FB600023BB6002237B60344B47
:10049C009B6803F00C033B613B69082B11D03B6953
:1004AC00082B44D83B69002B03D03B69042B04D0A8
:1004BC003DE02C4B2C4A1A603DE02A4B2B4A1A602B
:1004CC0039E0274B5B689B0D03F00103BB60244BA9
:1004DC005B6803F03F037B60BB68002B0CD0234AA6
:1004EC007B68B2FBF3F31E4A52689209C2F308020E
:1004FC0002FB03F37B610BE01B4A7B68B2FBF3F35B
:10050C00174A52689209C2F3080202FB03F37B619B
:10051C00134B5B681B0C03F0030301335B00FB60A4
:10052C007A69FB68B2FBF3F30E4A136003E00D4BE0
:10053C000D4A1A6000BF0A4B9B681B0903F00F039E
:10054C000B4AD35C3B61074B1A683B6922FA03F3F5
:10055C00044A136000BF1C37BD4680BC704700BF07
:10056C0000380240080000200024F40000127A0039
:10057C00980C000880B582B000AF00F0B3F90020F1
:10058C0000F0BEF900237B6000237B6009E07B68F0
:10059C00D9B200230122412000F006FA7B68013316
:1005AC007B607B68062BF2D90023FB70FB78092B50
:1005BC0000F2808101A252F823F000BFF10500087F
:1005CC003906000881060008C90600081107000852
:1005DC0059070008A1070008E907000831080008BE
:1005EC007908000801220021412000F0BFFA012205
:1005FC000121412000F0BAFA01220221412000F031
:10060C00B5FA01220321412000F0B0FA01220421A5
:10061C00412000F0ABFA01220521412000F0A6FA9E
:10062C0000220621412000F0A1FA44E10022002121
:10063C00412000F09BFA01220121412000F096FAA2
:10064C0001220221412000F091FA002203214120D5
:10065C0000F08CFA00220421412000F087FA0022DD
:10066C000521412000F082FA00220621412000F0F1
:10067C007DFA20E101220021412000F077FA0122CD
:10068C000121412000F072FA00220221412000F0E9
:10069C006DFA01220321412000F068FA01220421A5
:1006AC00412000F063FA00220521412000F05EFA9F
:1006BC0001220621412000F059FAFCE00122002120
:1006CC00412000F053FA01220121412000F04EFAA2
:1006DC0001220221412000F049FA0122032141208C
:1006EC0000F044FA00220421412000F03FFA0022DD
:1006FC000521412000F03AFA01220621412000F0A8
:10070C0035FAD8E000220021412000F02FFA012216
:10071C000121412000F02AFA01220221412000F09F
:10072C0025FA00220321412000F020FA00220421A6
:10073C00412000F01BFA01220521412000F016FA9D
:10074C0001220621412000F011FAB4E0012200211F
:10075C00412000F00BFA00220121412000F006FAA2
:10076C0001220221412000F001FA01220321412043
:10077C0000F0FCF900220421412000F0F7F90122DD
:10078C000521412000F0F2F901220621412000F060
:10079C00EDF990E001220021412000F0E7F9002260
:1007AC000121412000F0E2F901220221412000F058
:1007BC00DDF901220321412000F0D8F901220421A6
:1007CC00412000F0D3F901220521412000F0CEF99F
:1007DC0001220621412000F0C9F96CE00122002120
:1007EC00412000F0C3F901220121412000F0BEF9A3
:1007FC0001220221412000F0B9F9002203214120FD
:10080C0000F0B4F900220421412000F0AFF90022DD
:10081C000521412000F0AAF900220621412000F018
:10082C00A5F948E001220021412000F09FF90122A6
:10083C000121412000F09AF901220221412000F00F
:10084C0095F901220321412000F090F901220421A5
:10085C00412000F08BF901220521412000F086F99E
:10086C0001220621412000F081F924E0012200211F
:10087C00412000F07BF901220121412000F076F9A2
:10088C0001220221412000F071F9012203214120B3
:10089C0000F06CF900220421412000F067F90122DC
:1008AC000521412000F062F901220621412000F0CF
:1008BC005DF900E000BF00237B6002E07B68013340
:1008CC007B607B68064A9342F8D9FB780133FB7056
:1008DC00FB780A2B7FF46AAE0023FB7066E600BF40
:1008EC003F420F0080B400AF044B1B68034A43F037
:1008FC000103136000BFBD4680BC70470038024046
:10090C0080B485B000AF0346FB71FB795B09FB73C8
:10091C00FB7903F01F03BB73FB7B032B36D801A2BF
:10092C0052F823F041090008570900086D09000826
:10093C0083090008184B1B68BA7B012101FA02F2EB
:10094C001146154A0B43136021E0144B1B68BA7B0C
:10095C00012101FA02F21146104A0B43136016E012
:10096C000F4B1B68BA7B012101FA02F211460C4AAB
:10097C000B4313600BE00B4B1B68BA7B012101FA94
:10098C0002F21146074A0B43136000E000BF00BFA0
:10099C001437BD4680BC70473038024034380240B2
:1009AC00403802404438024090B482B000AF044654
:1009BC00084611461A462346FB710346BB710B468B
:1009CC007B7113463B71FB79413B032B00F2C080DA
:1009DC0001A252F823F000BFF50900084F0A0008E5
:1009EC00A90A0008030B00085C4B1B68BA7952007B
:1009FC00032101FA02F2D2431146584A0B4013600C
:100A0C00564B1B687979BA79520001FA02F21146F9
:100A1C00524A0B431360524B1B68BA79012101FAFD
:100A2C0002F2D24311464E4A0B4013604C4B1B68EA
:100A3C003979BA7901FA02F21146494A0B4313602B
:100A4C0087E0484B1B68BA795200032101FA02F285
:100A5C00D2431146434A0B401360424B1B687979D1
:100A6C00BA79520001FA02F211463E4A0B43136066
:100A7C003D4B1B68BA79012101FA02F2D2431146AF
:100A8C00394A0B401360384B1B683979BA7901FA33
:100A9C0002F21146344A0B4313605AE0314B1B6887
:100AAC00BA795200032101FA02F2D24311462D4ABF
:100ABC000B4013602B4B1B687979BA79520001FA01
:100ACC0002F21146274A0B431360274B1B68BA7975
:100ADC00012101FA02F2D2431146234A0B40136062
:100AEC00214B1B683979BA7901FA02F211461E4A78
:100AFC000B4313602DE01B4B1B68BA79520003218A
:100B0C0001FA02F2D2431146164A0B401360154B00
:100B1C001B687979BA79520001FA02F21146114A2E
:100B2C000B431360104B1B68BA79012101FA02F2D6
:100B3C00D24311460C4A0B4013600B4B1B6839799E
:100B4C00BA7901FA02F21146074A0B43136000E02E
:100B5C0000BF00BF0837BD4690BC70470000024084
:100B6C0004000240000402400404024080B485B03A
:100B7C0000AF0346FB710B46BB7113467B71404BB8
:100B8C001B68BA795200032101FA02F21A40BB79B0
:100B9C005B0022FA03F3FB73FB7B012B69D1FB791E
:100BAC00413B032B62D801A252F823F0C90B000879
:100BBC00F50B0008210C00084D0C0008314B1B688C
:100BCC00BA79012101FA02F2D24311462D4A0B40A7
:100BDC0013602C4B1B687979BA7901FA02F2114631
:100BEC00284A0B43136042E0274B1B68BA7901215A
:100BFC0001FA02F2D2431146234A0B401360224BF6
:100C0C001B687979BA7901FA02F211461E4A0B4334
:100C1C0013602CE01C4B1B68BA79012101FA02F21B
:100C2C00D2431146184A0B401360174B1B68797955
:100C3C00BA7901FA02F21146134A0B43136016E01B
:100C4C00114B1B68BA79012101FA02F2D243114609
:100C5C000D4A0B4013600C4B1B687979BA7901FA79
:100C6C0002F21146084A0B43136000E000BF002358
:100C7C0000E0012318461437BD4680BC704700BF06
:100C8C000000024014000240140402400000000066
:0C0C9C0000000000010203040607080924
:0C0CA8000C000020000000000024F400FC
:040000050800019559
:00000001FF
